{
  "_format": "hh-sol-artifact-1",
  "contractName": "SmartContract_with_Front_end_interaction",
  "sourceName": "contracts/FUNDS_MANAGEMENT.sol",
  "abi": [
    {
      "inputs": [
        {
          "internalType": "uint256",
          "name": "initval",
          "type": "uint256"
        }
      ],
      "stateMutability": "nonpayable",
      "type": "constructor"
    },
    {
      "inputs": [
        {
          "internalType": "uint256",
          "name": "balance",
          "type": "uint256"
        },
        {
          "internalType": "uint256",
          "name": "withdrawAmount",
          "type": "uint256"
        }
      ],
      "name": "insuficient_balance",
      "type": "error"
    },
    {
      "anonymous": false,
      "inputs": [
        {
          "indexed": false,
          "internalType": "address payable",
          "name": "to",
          "type": "address"
        },
        {
          "indexed": false,
          "internalType": "uint256",
          "name": "amount",
          "type": "uint256"
        }
      ],
      "name": "TransferredFunds",
      "type": "event"
    },
    {
      "anonymous": false,
      "inputs": [
        {
          "indexed": false,
          "internalType": "uint256",
          "name": "deposit_val",
          "type": "uint256"
        },
        {
          "indexed": false,
          "internalType": "uint256",
          "name": "balance",
          "type": "uint256"
        }
      ],
      "name": "deposite",
      "type": "event"
    },
    {
      "anonymous": false,
      "inputs": [
        {
          "indexed": false,
          "internalType": "address",
          "name": "walAdress",
          "type": "address"
        }
      ],
      "name": "showAddress",
      "type": "event"
    },
    {
      "anonymous": false,
      "inputs": [
        {
          "indexed": false,
          "internalType": "uint256",
          "name": "withdraw_val",
          "type": "uint256"
        },
        {
          "indexed": false,
          "internalType": "uint256",
          "name": "balance",
          "type": "uint256"
        }
      ],
      "name": "withdraw",
      "type": "event"
    },
    {
      "inputs": [],
      "name": "Balance",
      "outputs": [
        {
          "internalType": "uint256",
          "name": "",
          "type": "uint256"
        }
      ],
      "stateMutability": "view",
      "type": "function"
    },
    {
      "inputs": [
        {
          "internalType": "uint256",
          "name": "deopsite_val",
          "type": "uint256"
        }
      ],
      "name": "Deposite",
      "outputs": [],
      "stateMutability": "payable",
      "type": "function"
    },
    {
      "inputs": [],
      "name": "DisplayAddress",
      "outputs": [],
      "stateMutability": "payable",
      "type": "function"
    },
    {
      "inputs": [
        {
          "internalType": "address payable",
          "name": "to",
          "type": "address"
        },
        {
          "internalType": "uint256",
          "name": "amount",
          "type": "uint256"
        }
      ],
      "name": "TransferFunds",
      "outputs": [],
      "stateMutability": "payable",
      "type": "function"
    },
    {
      "inputs": [],
      "name": "WalletAddress",
      "outputs": [
        {
          "internalType": "address payable",
          "name": "",
          "type": "address"
        }
      ],
      "stateMutability": "view",
      "type": "function"
    },
    {
      "inputs": [
        {
          "internalType": "uint256",
          "name": "withdraw_val",
          "type": "uint256"
        }
      ],
      "name": "Withdraw",
      "outputs": [],
      "stateMutability": "payable",
      "type": "function"
    },
    {
      "inputs": [],
      "name": "getBalance",
      "outputs": [
        {
          "internalType": "uint256",
          "name": "",
          "type": "uint256"
        }
      ],
      "stateMutability": "view",
      "type": "function"
    }
  ],
  "bytecode": "0x608060405234801561001057600080fd5b506040516107ba3803806107ba833981810160405281019061003291906100ba565b80600181905550336000806101000a81548173ffffffffffffffffffffffffffffffffffffffff021916908373ffffffffffffffffffffffffffffffffffffffff160217905550506100e7565b600080fd5b6000819050919050565b61009781610084565b81146100a257600080fd5b50565b6000815190506100b48161008e565b92915050565b6000602082840312156100d0576100cf61007f565b5b60006100de848285016100a5565b91505092915050565b6106c4806100f66000396000f3fe6080604052600436106100705760003560e01c80635b6b431d1161004e5780635b6b431d146100e75780638a0e50f914610103578063c39884c21461012e578063c95f8b911461013857610070565b80630ef678871461007557806312065fe0146100a057806342002bc8146100cb575b600080fd5b34801561008157600080fd5b5061008a610154565b60405161009791906103ea565b60405180910390f35b3480156100ac57600080fd5b506100b561015a565b6040516100c291906103ea565b60405180910390f35b6100e560048036038101906100e09190610436565b610164565b005b61010160048036038101906100fc9190610436565b6101bb565b005b34801561010f57600080fd5b5061011861025d565b60405161012591906104a4565b60405180910390f35b610136610281565b005b610152600480360381019061014d91906104eb565b6102da565b005b60015481565b6000600154905090565b8060016000828254610176919061055a565b925050819055507fa2c2f1b06471bf7ca986a9e3626006f37ff9541ebcba02fc1c2fa60fdd092fa7816001546040516101b092919061058e565b60405180910390a150565b80600154101561020657600154816040517ff391c26b0000000000000000000000000000000000000000000000000000000081526004016101fd92919061058e565b60405180910390fd5b806001600082825461021891906105b7565b925050819055507f441a3e70c6f476810f346a8a9bd493b00e9afd2ba1ab35eca9005dfd312435a98160015460405161025292919061058e565b60405180910390a150565b60008054906101000a900473ffffffffffffffffffffffffffffffffffffffff1681565b7f9f65c0d0cc1655c261b06f98571b0702238a4dd3dfb594e0aca5b88f1c9d9ddf60008054906101000a900473ffffffffffffffffffffffffffffffffffffffff166040516102d0919061064a565b60405180910390a1565b80600154101561032557600154816040517ff391c26b00000000000000000000000000000000000000000000000000000000815260040161031c92919061058e565b60405180910390fd5b806001600082825461033791906105b7565b9250508190555080600260008473ffffffffffffffffffffffffffffffffffffffff1673ffffffffffffffffffffffffffffffffffffffff168152602001908152602001600020600082825461038d919061055a565b925050819055507f83fc902940e40d764ce79a4a196e4bc78fb22905484d5bf1da9dcf85b4b9554682826040516103c5929190610665565b60405180910390a15050565b6000819050919050565b6103e4816103d1565b82525050565b60006020820190506103ff60008301846103db565b92915050565b600080fd5b610413816103d1565b811461041e57600080fd5b50565b6000813590506104308161040a565b92915050565b60006020828403121561044c5761044b610405565b5b600061045a84828501610421565b91505092915050565b600073ffffffffffffffffffffffffffffffffffffffff82169050919050565b600061048e82610463565b9050919050565b61049e81610483565b82525050565b60006020820190506104b96000830184610495565b92915050565b6104c881610483565b81146104d357600080fd5b50565b6000813590506104e5816104bf565b92915050565b6000806040838503121561050257610501610405565b5b6000610510858286016104d6565b925050602061052185828601610421565b9150509250929050565b7f4e487b7100000000000000000000000000000000000000000000000000000000600052601160045260246000fd5b6000610565826103d1565b9150610570836103d1565b92508282019050808211156105885761058761052b565b5b92915050565b60006040820190506105a360008301856103db565b6105b060208301846103db565b9392505050565b60006105c2826103d1565b91506105cd836103d1565b92508282039050818111156105e5576105e461052b565b5b92915050565b6000819050919050565b600061061061060b61060684610463565b6105eb565b610463565b9050919050565b6000610622826105f5565b9050919050565b600061063482610617565b9050919050565b61064481610629565b82525050565b600060208201905061065f600083018461063b565b92915050565b600060408201905061067a6000830185610495565b61068760208301846103db565b939250505056fea26469706673582212208947c48d1f90de48b49a30b17afe278ff9b3b547bb98bf3a0c7b954effc3700c64736f6c63430008110033",
  "linkReferences": {},
  "deployedLinkReferences": {}
}